:02000004008377
:20400000FFFFFFFFFFFFFFFFFFFFFFFFFFFFFFFF9845E33492C996FF75D7DC838C2BD8A6EC
:20402000643C9D8EF315461F623292E8B8A1A20831D3F22D16827E386CAAE07DBCE99E53BD
:20404000F0D8746AB823B842A2B533B5341D88DEE7CAF029CD4352DCC6294D008FAF88B92C
:20406000E5A3EB0737C536CC7305C62A29574FF16B39F1563FBF18B6D2DCFA5DEE68C22CA0
:2040800091E30C3241340F3F1B0070D3EE1189AAB20DC4F96F7C9B20D4EBDE13BD5CEF55EC
:2040A000CABAF84F9840330AE0FD3D87B101EB0D6EC7FECB3EFB1597982B5B8C93CBEF23D8
:2040C000232936A8C3AED35D9ACABA3CE147C197E5B5403A395D3097A7584C3E16DCC19EF0
:2040E0005AB4899FCF1434C03AB067970242B6AEE7232E2DC1C6A175FF6BDD1905216BBC74
:20410000D0EE761DA49BA7A2BED80009B25AD379D31CE9713DD4113C292CBD30BDD20E2524
:204120008A58085E5079A15F27D9C96118E66F67FE9DF3F2CD93D094A29F4BA062BA7D590E
:204140002F3413B04D4F1922B6B3CABE81D1CF093EFD89969CE7EC59071B843F281D2D4985
:20416000BBC12A30471C115C0BA7028D50083E228BA7361EBB3086D516E79EF35C5E09CDB6
:204180000E883ACCC626F11047E88B2EE97A2EAF068BF57340246B49921A4C3E19A01061FD
:2041A000B2348FAD64D3B18DAA22638F67D27A9AE745100001099327C432000098C5319B3E
:2041C00043C2ED11BE06113B983EDD6F004483000044830000000000004083000000000059
:2041E0000000000000000000000000000000000000000000004483000000000000000000F8
:20420000000000000000000000000000000000000010007027575EA873646B2323232323A9
:20422000D8F0A06AF0D8089163E1C504061C115229CE4C299A1C8D9802DF91EE498E4046B5
:20424000264540FF5CABD428CE2B30ABCEC35110A84795714B363A92218D416013796C3131
:204260005E938F596B1C3A49E45EBD84020C8271BCD57876DD2C56C886378B3D2447E84019
:2042800067688245F2916216D11DCE5C729E293B0416761D84C582E266362399B74435958A
:2042A000BF159E15B08A1C8A32EB4489EB49E910388F2355AD99B14B64F0E0D2DC9ABD5076
:2042C000D73D5D5B44A48BD6708990CB8A680FDBA0FF28D930FD0A5B6FD0ECB20EAEE37C6F
:2042E000CF22073BFF2E89518C03401652BF45497721269265BCE2C770876992D0729BE82F
:20430000375CA4716CD44616F401B22714B7500B4E2EBBD790FC625918DCD16B8933646D53
:2043200078831D23B3F437BDCDE24335204F65ABB6614E2E974E8CC3E305AD5E2E82888C83
:20434000D240F25C2165C638889567E346014E10557B2C1D2FB765DC9907911F00A2565392
:20436000832292A3B4DDE915EA8E54A90E5189424CA33793C4207086F834C8095AA479ED41
:20438000F7E2875AD09F3823DA36E8C091F73B385CAEFD61D1C35094C40574A7F8B31C0B50
:2043A0000001000100000000000000000000000000000000000000000000000000000000FB
:2043C0000000000000000000000000000000000000000000000000000000000000000000DD
:2043E0000000000000000000000000000000000000000000000000000000000000000000BD
:204400000048004749468300C046C04600F004F81FB501F023FC1FBD03488546FFF7F8FF40
:2044200002F02EFBECF720D90020200010B5AD4AAD49AE48EBF7FAD9AD4AAE49AE48EBF722
:20444000F5D9AE49AE48EBF7B0DA10BD10B5AD4AAD49AE48EBF7EAD9AD4AAE49AE48EBF755
:20446000E5D9AE49AE48EBF7A0DA10BD70B50546CEF796DA0446AB49D1F78CDE002818D142
:2044800029462046D1F706DF0068002812D02846D1F706DF04462946D1F77CDE002808D131
:2044A000FF348134E08EA84203D19E480C30854201D3002070BDE06C0121084370BD10B533
:2044C000994900280AD001280AD002280AD0032803D17D20C00001F0C9FB10BD6420FAE7AE
:2044E000C820F8E7FF20F530F5E7904A1268002A00D010477047F0B5FF2085B0C330D5F7C1
:2045000082DE4404FF20C130D5F77DDE40000443FF20C7300394D5F776DE0404FF20C5304C
:20452000D5F771DE0443FF20CB30D5F76CDE0704FF20C930D5F767DE0743FF20CF30D5F781
:2045400062DE4504FF20CD30D5F75DDE40000543FF20D3300295D5F756DE0604FF20D13044
:20456000D5F751DE0643FF20D730D5F74CDE0504FF20D530D5F747DE0543002C04D0E1F79D
:2045800070DB03001DD01DE0002269496948CFF704DA694D2C68E1F733DA002211460120F1
:2045A000E1F73DDAE1F75DDA6449012009688847E1F764DA62499620096888472C6005B0F7
:2045C000F0BD01235A49012220315A48CFF7E5D957490197009403224C315648039BCFF75D
:2045E000DCD9534900960195032278315148029BCFF7D3D9E3E738B572B6FFF77CFFFFF782
:2046000025FF002002F012FA4EA11F20EBF7B4D89525AD054CA12846CFF7EDDB044651A12B
:204620002846CFF7E8DB0346414942480222A831801E0094CFF7B1D9D4F5E4F64C48006808
:20464000002800D0804738BD10B5D1F7F8DC002845D1354C523C207DC00740D04649454868
:20466000086030480A30FFF701FF4449002208604449434808604549434808600D210120C3
:2046800009038003CDF7DCD8274826224E30017E012311430176217EF92211402176224963
:2046A000F2390A7E1A430A76817EEF22114081761D48123841788906890E41701A48F02160
:2046C0000E3001713C214171C8218171FF21C171FFF7ACFE2E480068002800D08047012090
:2046E00010BD000024010000507483000090200088000000747583002491200058020000AE
:20470000AC91200000000000C476830000A0210000000000C476830000A021000000000040
:2047200000A021009027000012022000B4912000000010080203102500600040B80220009C
:20474000B40220004300000053756E204170722032332031393A34343A3430203230323391
:2047600000000000302E302E312E313400000000B8912000F74583007C0E2000840E200035
:204780004D698300880E2000EB44830014162000BC91200011481249EFF30582114B984769
:2047A000FEE770474572726F722120506C6561736520696D706C656D656E7420796F7572DE
:2047C000204953522048616E646C657220666F7220495251202564210A0000000000002383
:2047E000A4478300F538000010B501220A70418800240E2902D00F2907D103E0001D01F0C5
:204800004FF802E0001D01F0DAF8204610BD10B501231A4603490448CFF7BFD8034800F0E3
:20482000B2F810BDD411100800351025E94783001CB50C4601A90091134601462246012060
:20484000CCF7F1DF684600791CBD08B501466A460220CCF7E8DF6846007808BD08B50A466D
:2048600001466B460320CCF7DEDF6846007808BD08B50A4601466B460420CCF7D4DF684665
:20488000007808BD08B501466A46D020CCF7CBDF6846007808BD08B56946D120CCF7C3DF1D
:2048A0006846007808BD08B50A4601466B46D220CCF7B9DF6846007808BD08B501466A461C
:2048C000D320CCF7B0DF6846007808BD1CB50C4601A9009101461346FF2022460130CCF72F
:2048E000A2DF684600791CBD10B5FC4948600146FF200230CCF797DF10BD1CB50C4601A91A
:20490000009101461346FF2022460330CCF78BDF684600791CBD0A4608B50146FF206B465B
:204920000430CCF780DF6846007808BD08B5FF2069460530CCF777DF6846007808BD08B5B5
:204940000146FF206A460630CCF76DDF6846007808BD08B5FF2069460730CCF764DF68469B
:20496000007808BD014610B5FF200830CCF75BDF10BD08B50146FF206A460930CCF753DFCC
:204980006846007808BD014610B5FF200A30CCF74ADF10BD014610B503200003CCF743DFF7
:2049A00010BD08B501466A46CD48CCF73CDF6846007808BD0146CA4810B5401CCCF733DF49
:2049C00010BD08B5C6486946801CCCF72CDF6846007808BD10B5C14908600146C048C01CD9
:2049E000CCF721DF10BD1CB50C4601A900910146BB4813462246001DCCF715DF68460079C3
:204A00001CBD0A46014608B5B5486B46401DCCF70ADF6846007808BD1CB50C4601A9009169
:204A20000146AF4813462246801DCCF7FCDE684600791CBD0A46014608B5A9486B46C01D6A
:204A4000CCF7F1DE6846007808BD014608B5A4486A460830CCF7E7DE6846007808BD0A463E
:204A6000014608B59E486B460930CCF7DCDE6846007808BD014608B599486A460A30CCF768
:204A8000D2DE6846007808BD0A46014608B594486B460B30CCF7C7DE6846007808BD0146C5
:204AA00008B58F486A460C30CCF7BDDE6846007808BD014610B531200002CCF7B4DE10BDAC
:204AC00010B501468748CCF7AEDE10BD70B586B014460D460B9A0A9901910146814804AE3B
:204AE00000930292039623462A46401CCCF79BDE6846007C06B070BDF0B587B014460D46EF
:204B00000CAF46CF05AF049701AF46C701467548009323462A46801CCCF785DE6846007D5C
:204B200007B0F0BD01466F4810B5C01CCCF77BDE10BD70B586B014460D460B9A0A990191A7
:204B40000146684804AE00930292039623462A46001DCCF768DE6846007CCBE71CB50C46EE
:204B600001A9009101465F4813462246401DCCF75ADE684600791CBD3EB50C4602A9019171
:204B800001460093574813462246801DCCF74BDE6846007A3EBD70B586B014460D460B9A82
:204BA0000A99019101464F4804AE00930292039623462A46C01DCCF736DE6846007C99E739
:204BC0001CB50C4601A9009101464648134622460830CCF728DE684600791CBD014610B5D4
:204BE00019204002CCF71FDE10BD10B501463E48CCF719DE10BD0A46014608B53A486B460D
:204C0000401CCCF710DE6846007808BD0A46014608B535486B46801CCCF705DE68460078B2
:204C200008BD1CB50C4601A9009101462E4813462246C01CCCF7F7DD684600791CBD1CB58F
:204C40000C4601A900910146274813462246001DCCF7E9DD684600791CBD3EB50C4602A9BA
:204C6000019101460093204813462246401DCCF7DADD6846007A3EBD3EB50C4602A9019123
:204C800001460093184813462246801DCCF7CBDD6846007A3EBD7FB50C46089901910146EE
:204CA0000093114803AD134602952246C01DCCF7BADD6846007B04B070BD7FB50C46089998
:204CC000019101460093084803AD1346029522460830CCF7A8DD6846007BECE714932000CD
:204CE0000130000001310000013200003EB50C4602A900930191134601462246FB48CCF7FB
:204D000092DD6846007A3EBD1CB50C4601A900910146F64813462246401CCCF784DD68462F
:204D200000791CBD70B586B014460D460B9A0A9901910146ED4804AE0093029203962346E8
:204D40002A46801CCCF76FDD6846007CD2E670B586B014460D460B9A0A9901910146E34802
:204D600004AE00930292039623462A46C01CCCF75ADD6846007CBDE6014608B5DB486A466E
:204D8000001DCCF750DD6846007808BD1CB50C4601A900910146D54813462246401DCCF778
:204DA00042DD68460079002800D001201CBD1CB50C4601A900910146134633202246000200
:204DC000CCF731DD684600791CBD0A46014608B5C6486B46F730CCF726DD6846007808BD17
:204DE00008B5C2486946F830CCF71DDD6846007808BD08B5BD486946F930CCF714DD684671
:204E0000007808BD08B5B9486946FA30CCF70BDD6846007808BD08B5B4486946FB30CCF7D2
:204E200002DD6846007808BD0A46014608B5AF486B46FC30CCF7F7DC6846007808BD1CB52E
:204E40000C4601A900910146A84813462246FD30CCF7E9DC684600791CBD1CB50C4601A94B
:204E60000091014613460D2022468002CCF7DBDC684600791CBD08B50A4601466B469C4887
:204E8000CCF7D1DC6846007808BD08B598486946401CCCF7C8DC6846007808BD08B5944824
:204EA0006946801CCCF7BFDC6846007808BD1CB50C4601A9009101461346352022460002A1
:204EC000CCF7B1DC684600791CBD08B50A4601466B468848CCF7A7DC68460078002800D049
:204EE000012008BD1CB50C4601A900910146814813462246401CCCF796DC684600791CBD0C
:204F00001CB50C4601A9009101467A4813462246801CCCF788DC684600791CBD08B575482C
:204F20006946C01CCCF77FDC6846007808BD08B570486946001DCCF776DC6846007808BD9C
:204F4000014608B56B486A46401DCCF76CDC6846007808BD014608B566486A461130CCF731
:204F600062DC6846007808BD014608B561486A46801DCCF758DC6846007808BD014608B528
:204F80005C486A46C01DCCF74EDC6846007808BD1CB50C4601A90091014656481346224604
:204FA0000830CCF740DC684600791CBD7FB50C4608990191014600934E4803AD1346029511
:204FC00022460930CCF72FDC6846007B73E60A46014608B547486B460A30CCF724DC6846A1
:204FE000007808BD014608B542486A460B30CCF71ADC6846007808BD0A46014608B53D487E
:205000006B460C30CCF70FDC6846007808BD7FB50C460899019101460093364803AD1346F0
:20502000029522460D30CCF7FEDB6846007B42E6F0B587B014460D460CAF46CF05AF04979F
:2050400001AF46C701462B48009323462A460E30CCF7E9DB6846007D62E51CB50C4601A969
:20506000009101462348134622460F30CCF7DBDB684600791CBD1CB50C4601A900910146CF
:2050800013461B2022464002CCF7CDDB684600791CBD08B50A4601466B461748CCF7C3DBA2
:2050A0006846007808BD014608B513486A46401CCCF7B9DB6846007808BD0A46014608B504
:2050C0000D486B46801CCCF7AEDB6846007808BD1CB50C4601A90091014607481346224642
:2050E000C01CCCF7A0DB684600791CBD0A32000001340000013500000136000008B50A46AB
:2051000001466B46F948CCF78EDB6846007808BD0A46014608B5F5486B46401CCCF783DB80
:205120006846007808BD0A46014608B5EF486B46801CCCF778DB6846007808BD0A46014614
:2051400008B5EA486B46C01CCCF76DDB6846007808BD0A46014608B5E4486B46001DCCF7CC
:2051600062DB6846007808BD0A46014608B5DF486B46401DCCF757DB6846007808BDDB487B
:2051800010B50830CCF74FDB10BD014608B5D7486A460930CCF747DB6846007808BD0A462C
:2051A000014608B5D1486B460A30CCF73CDB6846007808BD0A46014608B5CC486B460B30CE
:2051C000CCF731DB6846007808BD0A46014608B5C6486B46F438CCF726DB6846007808BD27
:2051E0000A46014608B5C1486B46F238CCF71BDB6846007808BD08B5014637206A460002C6
:20520000CCF711DB009808BD014608B5B7486A46FC30CCF708DB009808BD014608B5B348A1
:205220006A46FD30CCF7FFDA009808BD014608B5AE486A46FE30CCF7F6DA009808BD014689
:2052400008B5AA486A46FF30CCF7EDDA009808BD08B501466A46A648CCF7E5DA009808BD58
:205260000A46014608B5A2486B46401CCCF7DBDA009808BD014608B59D486A46801CCCF716
:20528000D2DA009808BD08B599486946C01CCCF7CADA6846007808BD08B595486946001D24
:2052A000CCF7C1DA009808BD08B591486946401DCCF7B9DA009808BD0A46014608B58C48B6
:2052C0006B46801DCCF7AFDA6846007808BD1CB50C4601A900910146854813462246C01D39
:2052E000CCF7A1DA68460079FFE60A46014608B57F486B460830CCF796DA6846007808BD42
:20530000F0B587B014460D460CAF46CF05AF049701AF46C701467648009323462A4609307E
:20532000CCF781DA6846007D96E60A46014608B56F486B460A30CCF776DA6846007808BDB4
:205340000A46014608B56A486B460B30CCF76BDA6846007808BD014608B565486A460C30CB
:20536000CCF761DA6846007808BD08B5604869460D30CCF758DA6846007808BD08B55C48B2
:2053800069460E30CCF74FDA6846008808BD0A46014608B556486B460F30CCF744DA6846C8
:2053A000007808BD1CB50C4601A9009101465048134622461030CCF736DA019895E61CB5BA
:2053C0000C4601A900910146134607202246C002CCF729DA6846007987E60A46014608B5A1
:2053E00043486B46FC30CCF71EDA6846007808BD01463F4810B5FD30CCF715DA10BD014619
:2054000008B53B486A46FE30CCF70DDA6846007808BD0A46014608B535486B46FF30CCF765
:2054200002DA6846007808BD08B50A4601466B463048CCF7F8D96846007808BD08B52D4877
:205440006946401CCCF7EFD96846007808BD1CB50C4601A900910146264813462246801C5B
:20546000CCF7E1D9684600793FE61CB50C4601A9009101461F4813462246C01CCCF7D3D94B
:205480006846007931E6014608B51A486A46001DCCF7C9D96846007808BD08B501463920EE
:2054A0006A460002CCF7BFD96846007808BD0A46014608B50F486B46FC30CCF7B4D968466E
:2054C000007808BD08B50B486946FD30CCF7ABD96846007808BD014608B506486A46FE3041
:2054E000CCF7A1D96846007808BD000005360000053700000538000008B501466A469C4838
:20550000CCF791D968460078EEE7F0B58FB014460D461CAF46CF0DAF0C9709AF46C718A90D
:20552000C6C9089705AF46C714A9C6C9049701AF46C701468E48009323462A46401CCCF730
:2055400072D908A8007D0FB0F0BD1CB50C4601A900910146864813462246801CCCF763D998
:2055600068460079C1E51CB50C4601A9009101467F4813462246C01CCCF755D9684600793D
:20558000B3E50A46014608B579486B46001DCCF74AD968460078A7E70A46014608B57448E6
:2055A0006B46401DCCF73FD9684600789CE71CB50C4601A9009101466D4813462246801DA1
:2055C000CCF731D9684600798FE50A46014608B567486B46C01DCCF726D96846007883E780
:2055E0000A46014608B562486B460830CCF71BD96846007878E708B55D4869460930CCF77B
:2056000012D9684600786FE7014608B558486A460A30CCF708D96846007865E7014654489C
:2056200010B50B30CCF7FFD810BD1CB50C4601A90091014613461D2022464002CCF7F3D890
:205640006846007951E50A46014608B548486B46FD30CCF7E8D86846007845E70A460146BF
:20566000434810B5FE30CCF7DED810BD08B540486946FF30CCF7D7D86846007834E708B5D3
:2056800069463C48CCF7CFD8684600782CE70146384810B5401CCCF7C6D810BD08B501461A
:2056A0003B206A460002CCF7BED8684600781BE71CB50C4601A9009101462E481346224680
:2056C000FD30CCF7B0D8684600790EE508B529486946FE30CCF7A7D86846007804E71CB509
:2056E0000C4601A900910146224813462246FF30CCF799D868460079F7E43EB50C4602A956
:20570000009301911346014622461B48CCF78BD86846007A3EBD10B501461848CCF783D826
:2057200010BD1CB50C4601A900910146134813462246401CCCF777D868460079D5E408B5D0
:20574000009313460A4601460C48801CCCF76BD8CAE61CB50C4601A90091014607481346D3
:205760002246C01CCCF75FD868460079BDE4000004390000043A0000043B00000A3100002E
:20578000FE4908607047FE4A08B5C11E914201D3002008BD05216A4611705070000A907012
:2057A0000321F848FFF744F80028F2D0012008BD30B5F54B38CB03600C60156030BD08B56D
:2057C00004216A461170002800D0012050700221EE48FFF72DF8002801D0002008BD072021
:2057E00008BD10B513468A1C8AB0D4B21F290DD8002B01D1002909D16A465170002808D0C2
:20580000012808D0022817D0032817D003200AB010BD052000E0062010700A4600A81946B8
:205820000230EAF703D86A462146D848FFF700F8002805D00020EAE70720EDE70820EBE772
:205840000720E4E7FEB50D46074601461E461446CF48FFF7BAFC002820D0002069460881CB
:205860003A4602A9CB48FFF722FB0D206946087008894870000A8870CD70280A08714C7193
:20588000200A8871CE716A460821C048FEF7D0FF002801D00020FEBD0720FEBD0420FEBD6C
:2058A000FEB504460188B948BB4D814238D1A2790021121F130000F091FB10090E10191B26
:2058C0002C2C2C2C1D2C2C2C2C22272C608869460880A0201FE0002000E0012069460871AF
:2058E0006088C88001A80090A12014E00220F5E70320F3E7608869460880A4200BE06088D9
:2059000069460880A72006E0608869460880A82001E0002904D02A68002A01D069469047CB
:205920002088984EB0420AD1A079052807D16088694608802A68A620002A00D09047934FC4
:205940002088BF1CB8421CD1A079052819D1E079092804D0102807D01E2812D109E0608846
:2059600069460880AB2008E0608869460880A92003E0608869460880AA202A68002A00D0FD
:2059800090472088814988420FD0491C88420CD0B8420AD0B04208D0804A1068002804D02E
:2059A00000941268032069469047FEBD10B5FEF73FFF002801D0002010BD072010BD01465C
:2059C00008B576480268002A03D0009104206946904708BD0EB510226B461A705870020AE1
:2059E0009A70020CDA70000E18715971080A9871080CD871080E18726A4609216348FEF752
:205A000017FF002801D000200EBD07200EBD08B512216A461170507002215C48FEF708FFF6
:205A2000002801D0002008BD072008BD0A2801D90020704701207047F0B58DB004462C2168
:205A40006846E9F7B4DF132069460870207801210022022804D0012807D0002808D0A5E06C
:205A6000684641708270032180E06846417001E068464270E07902280AD1207AFFF7D6FFEE
:205A8000002879D06B46987808439870207AD870607801280CD1A078FFF7C8FF00286BD089
:205AA000694688780421084369468870A0780871607901280CD1A079FFF7B8FF002875D07D
:205AC000694688780821084369468870A0794871E07801280CD12079FFF7A8FF002865D039
:205AE00069468878102108436946887020798871E0790721012839D1607A401E0B2855D2FC
:205B000069468A8588780221084369468870607AC871002520E068000619B77A0BA93A468E
:205B20001C48FFF7C4F91A48F67A39461830FFF74CFB002838D03046FFF778FF002835D038
:205B40006846818D68002A18684610180172090A41726D1C8672EDB26846C079A842DAD82D
:205B60006846C079410040180830C1B26A460748FEF75EFE002813E018E000001C932000C8
:205B8000FE0700006EFC00001C1B200080FD0000CE7083007B0200001493200018932000F2
:205BA00006D000200DB0F0BD0420FBE70320F9E70720F7E708B505216A4611700921517078
:205BC000002800D00120907003211848FEF730FE002801D0002008BD072008BD08B5052059
:205BE0006946087010204870012088706A4603210E48FEF71DFE002801D0002008BD07203E
:205C000008BD08B505216A4611701E215170002800D00120907003210448FEF709FE0028FE
:205C200001D0002008BD072008BD000082FD00000B4A30B511460B4C60310B46DC3B0CC195
:205C4000372106E0020C8D0012185A51064A504300190A46491E002AF4DC30BD0120E7E70D
:205C60009C932000E119D666CD0D0100020A08704A70020C8A70020ECA7070471CB501208B
:205C80000021000500F088F800220A490A48CDF784DE162069460880684600F05DFD0028F4
:205CA00006D10449044800221431801ECDF775DE1CBD0000881110080230102510B5FF247F
:205CC00015340028204604D0D4F79DDA0121014303E0D4F798DA410849002046D4F7E5DACF
:205CE00010BD000010B5FF2411342046D4F78BDA802101432046D4F7D8DA241D2046D4F7DA
:205D000082DA410849002046D4F7CFDA194C216802208143204600F09FF82168A0128143FB
:205D2000204600F099F82168E0128143204600F093F8216860158143204600F08DF8216836
:205D4000A0158143204600F087F80A480021083000F082F8216801200143204600F07CF828
:205D600000BF00BF206841084900204600F074F810BD000080010040010000B50448054AEA
:205D8000016801D0114300E0914300F065F800BD800100400002000030B50C4CA268102578
:205DA000AA43A2600A4A0029116806D00143104600F052F8E068284305E08143104600F0B2
:205DC0004BF8E068A843E06030BD0000006000408001004070B5FF25044611352846D4F7AD
:205DE00012DA8021884301462846D4F75EDA5220D4F709DA217A800989068001890E014364
:205E00005220D4F752DA2D1D2846D4F7FCD92288800980015200A1880243114389B2284650
:205E2000D4F743DA074C216804252943204600F013F800BF00BF21682046A94300F00CF85B
:205E400070BD00008001004002210180002141602A2181607047000070B5094D01242A78C9
:205E6000002A05D1A20753695615334353612C70044A1163044940185063946370BD00004E
:205E8000C4912000C001004000FFFFBF70B5047A00212B4A132341560125002C3BD0322911
:205EA00006DBD4682E4632398E403443D46003700178CA06D20E29469140224A1160002193
:205EC0004156FF264268002911DA0B071B0F083B9C081D4BA400E318DC698907C90E8E40A4
:205EE0005207120EB4438A401443DC610DE08C08164BA400E3181C688907C90E8E40520741
:205F0000120EB4438A4014431C600078C006C00E85400F4812E00E48803032290BDBD36831
:205F200032398D40AB43D360D168002902D10121C904016070BDC906C90E8D40056070BD51
:205F40000060004080E200E000ED00E000E400E000E100E0F8B50F46164940000D5C1C46A1
:205F600016462846D4F74FD900090001002C02D0012C02D003E0042100E00C21084306995E
:205F80004C0007990C43044301204002002F01D0044300E08443FF2721460137394328467F
:205FA000D4F783D9002E04D12146B9432846D4F77CD9F8BDF06D8300820893008007064A3D
:205FC00010B5C00E9A181368FF248440A34381400B43136010BD00008002004030B4744685
:205FE000641E2578641CAB4200D21D46635D5B00E31830BC184700007CB50024124D0128A2
:2060000016D0142807D0034601221049A81ECDF7C4DC20467CBD0868828841880091019292
:206020000A490378032290392846CDF7B6DCF0E70868022241880091044903783C39284670
:20604000CDF7ABDCE5E7000002301025B40E1008F8B5144E15460C460346009202221049D4
:206060003046CDF79ADC002C08D0012C0AD0234601220D49B01ECDF790DCF8BD084900225D
:20608000383104E0002D06D00749002248393046CDF783DCF8BD024900227431F7E700007F
:2060A0009C0A100802301025A00B100808B503460091022202490348CDF76FDC08BD0000D3
:2060C000D40B10080230102530B51C4C85B0054600290AD0012927D0022904D100221849EE
:2060E0002046CDF75ADC05B030BD024604A91548FEF7DDFE13482A4603A9401CFEF7D7FEDF
:206100009D202A4602A98000FEF7D1FE6846018980890191009069460B8A09490322C0394C
:206120002046CDF73ADCDEE705490448134601224039801ECDF731DCD5E700000230102539
:20614000D00C100872020000F7B5294E8AB070786B4607C3284F14460D46042225493846E1
:206160000A9BCDF71ADC002D02D0022D3CD112E02046FF3814380BD02046FF38173807D00C
:206180001C491D48234601225431801ECDF705DCFEF726FE28E006A918480A9AFEF787FE93
:2061A000164808A9401C0A9AFEF781FE9D2009A980000A9AFEF77BFE07AA04A90A98FEF766
:2061C00091FE04A90E48CDF7D0DD03466846848C028C018B007F03946C4607C40549052293
:2061E00090313846CDF7D9DB75700DB0F0BD0000049320008809100802301025720200005E
:2062000000003025F3B583B06846047B01912607E707B50FFF0F3B460322009519491A48A3
:20622000CDF7BBDB19480078C007C00FB84209D0E00707D01349002248311348CDF7ADDB66
:2062400000F036FC114800780007800FA84214D0B00F02D0022D0AD00FE0A00703D509498D
:2062600000225C3106E0074900228C3102E005490022A0310448CDF790DB0448047005B047
:20628000F0BD0000D4081008023010250493200070B586B0456800950446438801224B49D6
:2062A0004B48CDF77ADB6188494C0020641E0B00FFF794FE0B82070E1B1522355B6B48291F
:2062C0008200684641882846FFF79CFF06B070BD6846428841780078FFF736FFF6E7684684
:2062E00041880078FFF7E2FEF0E76846428841780078FFF7E9FEE9E76846428841780078B1
:20630000FFF7A6FEE2E7684600780121FEF700FF2E49002220312046CDF73FDBD6E7019062
:206320006846057801A92846FEF7C7FE2749012240312046019BCDF730DB01212846FEF706
:20634000F2FEC3E701906846057801A92846FEF7B4FE1E49012270312046019BCDF71DDB3F
:2063600001212846FEF7EAFEB0E7684605781749184E2B460122A4312046CDF70EDB012289
:2063800031462846FEF7A4FEA0E7019002900390049068460D4905780022D4312046CDF7DE
:2063A000FCDA212001AA10210001FEF764FE01212846FEF7A3FE89E70B46044904480122EF
:2063C000F431C01ECDF7E9DA80E70000040D10080330102538900D0013B568460088002840
:2063E00007D0162804D1002204490548CDF7D5DA1CBD6846FFF74CFF1CBD0000980810082B
:206400000230102500B59DB028224F490FA8C9F759DF00206A461085107708AA10706A46B4
:206420001070199007211A901171FF2110724131918511860121117391860323137410752F
:20644000107608AA1B9010716A4611870FAA28213E48FEF7C8FA3D480AAA0221401EFEF7A2
:20646000C2FA3A4807AA0121401CFEF7BCFA374808AA01214130FEF79AFC99206A4601212A
:206480008000FEF794FC314819AA06214330FEF78EFC2E4801AA01214430FEF788FC2B48FF
:2064A00002AA01214530FEF782FC4D200BAA0221C000FEF77CFC25480CAA02214730FEF702
:2064C00076FC214A2148183A17213F30FEF76FFC1D4A1E481C3A04214030FEF768FC1B48A9
:2064E00003AA01212038FEF708FA18480DAA02211F38FEF702FA812004AA01218000FEF716
:20650000FCF9124805AA01211D38FEF7F6F90F481BAA04211138FEF7AEFD0C4806AA0121D2
:206520001038FEF7A8FD094809AA01210F38FEF7A2FD85200EAA02218000FEF79CFD04489E
:20654000FEF748FA1DB000BD8070830022020000F95F830010B50220FEF7ABFA064800F049
:20656000C1FA06490870044800F038F9044908700148FEF7D7FA10BD0966830006932000E0
:20658000079320001FB55F2000901D4B082220211C48DFF7E7DD602000901A48184B012295
:2065A0004021001FDFF7DEDD164C2022083CA1686068FEF78BF900F00FFA00276725FF43AA
:2065C0006C2600950E4B3A4601A96068DFF781DE0028F6D068460079022802D0FEF7C2F953
:2065E000EFE70096064B002202A9A068DFF771DE0028E6D003990298FFF7EEFEE1E7000026
:20660000C0708300109320007FB5024600254D48FF2A0BD04C4B9C78A24266D14A78012A17
:206620002DD0022A44D0032A0CD152E00C460978002902D0012905D105E0A3780122434964
:20664000CDF7ABD97AE06688E3886279218903966E460EC63D49237905222C310646CDF7E3
:206660009CD92089002805D0384936480022C031801E50E035490022943130464BE0097997
:20668000012906D0022908D0032909D0042955D10AE02E490022EC313DE000222C493AE031
:2066A0002B490022243136E029490022483132E00979012942D127A10968009124490022A2
:2066C0006C31CDF76AD96A460221012000F0D4FA34E00A79012A31D1CA8800924B791C4993
:2066E00002227C31CDF759D928E0DB789A4225D14A78012A02D0022A20D10FE089780129B0
:2067000002D002291AD103E011490022A43102E00F490022C831CDF740D90FE08978012911
:206720000CD15A2369460B7009490122EC31CDF734D901216A46084600F0DCF8284604B06C
:2067400070BD00000230102504932000E00E1008F00F1008010200007CB5022269460A714F
:2067600041220092114C01460F4B0022A068DFF782DD0F4D00280BD0462000900A4B0022FB
:2067800001A96068DFF777DD002804D001207CBD0022084902E00749002240312846CDF79D
:2067A000FCD800207CBD0000A87083000893200000301025081110081CB5012188020191B1
:2067C00000900023024A03A10348E0F721D81CBD8565830061707000089320003EB50F496E
:2067E0000446486F896F00900C4801910146036F702202A8FEF76AF9002809D169460B7AA7
:20680000012207490748CDF7C8D8FF2069460872054844606846007A3EBD00008C6E830079
:206820008406100800331025C8912000FFB581B005460A9E00200B9F30800093144613463D
:20684000022210491048CDF7A8D8022C09D00D490D4800223031801ECDF79FD80B4805B009
:20686000F0BD0220694648700D700124084D8C706A68029890470749884200D16C703D6048
:206880003480ECE7F8051008023310250A040000C8912000010D0000FFB583B001266946A0
:2068A0004E7108711D46009317461346344602220D490E48CDF771D8032F0BD000240C4818
:2068C0004268002A04D0002C02D001A90498904707B0F0BDE80702D068468671EFE7022033
:2068E00069468871EBE700005406100802331025C891200010B50124012807D00346002472
:20690000012207490748CDF748D806E0012901D0002402E0044910780870204610BD00006A
:20692000C805100800331025C89120001CB5012100200A4601910090014602231420FFF776
:2069400009FB00211420FFF737FB1CBD10B50720DAF7B8D80003040E0720DAF77DD82146C7
:20696000CFF70DD90C4C0421207D0843207500F0AFF8207DC107094805D009A1CCF7BADF49
:20698000FDF742FD04E009A1CCF7B4DFDFF776D8DFF7E7DD10BD0000C0012000000000254F
:2069A000496E20536F43204D6F6465005741524E494E473A20496E20484349204D6F646596
:2069C0002C2077696C6C206E6F742072756E20415050205461736B0010B500F001F810BD9E
:2069E0000EB525200DA10006CCF784DFFFF77AF96846FFF729FA0420694608800020019079
:206A00002A2002906846FFF7E5F90120FFF756F901210805FFF7C0F90EBD00006472697654
:206A200065725F6C70635F696E69740010B5032801D3002010BD242148430F49082244186F
:206A40000E492068E8F7A2DE002812D0A2696168E068E8F7EBDEE269A1682069E8F7E6DEAA
:206A6000216A6069E8F7A1DF082204482168E8F7DDDE012010BD000024912000AC912000AA
:206A800010B50A480068FFF7D3F8FFF74FFF0120FDF787FFFDF7BBFEFFF7B4FCFFF75AFD37
:206AA000FFF78AFEDFF75DDD002010BDC09120000EB536206946087003200190012008725B
:206AC0006846FFF7E3F90120FFF756F90EBD000010B50020C043CFF786DD0149C86010BDB5
:206AE000B49120007CB50E490546486D896D00900B480191C11FFF22036D5132F9390948C7
:206B0000FDF7E4FF074C002802D0656020787CBD002205490548CCF740DFFF2020707CBD34
:206B200008708300D09120007008100800301025FEB50024089E099D0B46022A07D0134614
:206B400001220D490D48CCF728DF0D4C12E002216A4651700121117110700A484268002A74
:206B600002D06946184690470648083028600648008830802046FEBDD40610080030102553
:206B80000A040000D091200090912000FFB585B0174600240122184918480E9E0F9D089BDC
:206BA000CCF7FBDE109816490160052F0CD0124912483B4602223431801E0096CCF7EDDE40
:206BC000104C09B02046F0BD002D12D00320694648710598087101200872089848724E8119
:206BE000094803954268002AEBD001A906989047E7E7044CE41CE4E7680710080230102527
:206C0000BD6C83000A040000D0912000FFB585B06946087101274F711D4600931646134695
:206C20000024022211491248CCF7B7DE082E02D00B2E08D112E0E80702D06846077201E02B
:206C4000022010E001240B484268002A04D0002C02D001A90698904709B0F0BDA80701D5FA
:206C6000032000E0042069460872EBE73008100802301025D091200070B5012413460D46C4
:206C8000012806D00024224608490948CCF785DE0AE0FF202D308542F4D80A4619460548AC
:206CA000E8F7C4DD04480580204670BDA806100800301025D8912000909120000EB50293A3
:206CC000019200910346042202490348CCF765DE0EBD000010071008023010256D616C6C7E
:206CE0006F630063616C6C6F63007265616C6C6F63000000887283001C7383007C72830072
:206D000024738300D47283003C73830030738300C4728300C4728300C4728300C472830054
:206D20005472830010738300C4728300A4728300E0728300F4728300947283003072830046
:206D4000E8718300BC71830058728300BC728300B4728300147283006C7283004872830059
:206D60003C718300887183001C718300347183008071830024718300707183003872830012
:206D8000E87283004471830090718300CC718300F071830060718300AC71830000728300CD
:206DA000DC7183009C728300A071830054718300C47183000C728300207283002C718300A8
:206DC000CC72830008738300AC72830080728300487383007871830028728300FC72830026
:206DE000747283003C72830050728300A0728300E000E200E400E600E800A000A200A400C5
:206E0000EA00EC00EE00F000F200800082008400C000C200C400C600C800CA00CC00CE000E
:206E2000860088008A008C008E00900092000000A600A800AA00AC00D00096009800F400E8
:206E4000F410F420F430F440AE00AE10AE20F450F460F470F480F4909A009A109A20D200C4
:206E6000D210D220D230D240D250D260D2709A309A409A509A609A709A809A900000AE30E0
:206E8000AE40AE50AE60D2809AB09AC0020800280F180000000000000000000000000200A7
:206EA000000000000100000002000328120000000000000000000000000001000000000091
:206EC000010000000400192A00000000000000000000000000000000000000000100000069
:206EE000120002290000000000000000000000000000020000000000110000002D6883002A
:206F00000000000099688300020800280AA00000000000000000000000000200000000000F
:206F200001000000020003280200000000000000000000000000010000000000010000001F
:206F4000040001B00000000000000000000000000000000000000000010000000800012949
:206F6000000000000000000000000000000016009291200001000000020003280C0000007E
:206F80000000000000000000000001000000000001000000040002B0000000000000000039
:206FA000000000000000000000000000100000000200032810000000000000000000000084
:206FC000000001000000000001000000040003B000000000000000000000000000000000F8
:206FE000000000000000000012000229000000000000000000000000000002000000000052
:20700000110000000200032820000000000000000000000000000100000000000100000010
:20702000040004B0000000000000000000000000000000000000000000000000120002295B
:20704000000000000000000000000000000002000000000011000000316B83008D6B830083
:207060000D6C83000319000002010503030AA00F09424C455F5045524950484552414C000A
:20708000424C455F5045524950484552414C000000000000000000000000000000000000D2
:2070A00000000000000000006170705F73656E645F6D73675F746F5F6170707461736B004B
:2070C0006170705F6D61696E5F7461736B006C655F76656E646F725F64726F705F61636CF8
:2070E0005F64617461006C655F76656E646F725F7365745F7072696F72697479000000004D
:207100005363656E655F42005363656E655F4300426F6F744F6E636500000000493830384E
:2071200030000000493243300000000053504943300000005350493000000000554152547A
:207140003000000047444D4130204368616E6E656C3000004750494F5F47726F75703000E2
:20716000456E68616E6365645F54696D65723000493243310000000053504943310000001A
:207180005350493100000000554152543100000047444D4130204368616E6E656C31000012
:2071A0004750494F5F47726F75703100456E68616E6365645F54696D6572310054494D3240
:2071C00000000000554152543200000047444D4130204368616E6E656C3200004750494FBE
:2071E0005F47726F7570320054494D330000000047444D4130204368616E6E656C3300007F
:207200004750494F5F47726F7570330054494D340000000054696D6572342D3500000000EB
:2072200054494D3500000000534841323536000042544D414300000041444300464C415361
:20724000485F53454300000050465F5254430000525443005356430042544D41435F57528A
:2072600041505F41524F554E440000005A4947424545000054524E47000000004E4D490080
:207280004C50434F4D500000496E697469616C5350000000544D455445520000495200004A
:2072A0005744540050656E64535600005350493257000000493253305F5258004932533035
:2072C0005F5458005273766400000000516465636F6465004D656D4D616E616765000000E7
:2072E0005379735469636B005065726970686572616C000053797374656D0000506C6174A2
:20730000666F726D000000004B65797363616E0044656275674D6F6E00000000526573654B
:2073200074000000486172644661756C7400000055736167654661756C74000042757346FD
:2073400061756C74000000005054415F4D61696C626F780000202000014483009547830000
:20736000954783009547830095478300954783000000000000000000000000000000000091
:207380009547830000000000000000009547830095478300954783009547830095478300B3
:2073A0009547830095478300954783009547830095478300954783009547830095478300D5
:2073C0009547830095478300954783009547830095478300954783009547830095478300B5
:2073E000954783009547830095478300954783009547830095478300954783000190200043
:20740000499020009547830091902000D990200095478300954783009547830095478300CE
:207420009547830095478300954783007D5C83009547830095478300954783009547830057
:207440009547830095478300954783009547830010B547480468200701D52BF2C3F32006FA
:2074600001D52BF2BFF3200501D52BF2BBF3200401D52BF2B7F3200301D52BF2B3F3200202
:2074800001D52BF2AFF3200101D52BF2ABF3002C01DA2BF2A7F310BD10B535480468600705
:2074A00001D52BF29FF3600601D52BF29BF3600501D52BF297F3600401D52BF293F360033E
:2074C00001D52BF28FF3600201D52BF28BF3600101D52BF287F3600001D52BF283F310BD00
:2074E00010B523480468A00701D52BF27BF3A00601D52BF277F3A00501D52BF273F3A00443
:2075000001D52BF26FF3A00301D52BF26BF3A00201D52BF267F3A00101D52BF263F3A000A9
:2075200001D52BF25FF310BD10B511480468E00701D02BF257F3E00601D52BF253F3E0058C
:2075400001D52BF24FF3E00401D52BF24BF3E00301D52BF247F3E00201D52BF243F3E001E5
:2075600001D52BF23FF3E00001D52BF23BF310BD4010004010718300FC758300C4768300D3
:2075800004942000CC942000CC942000C8000000000000000000000000718300C4768300BA
:2075A000C476830004942000049420000494200000000000000000000000000008718300EA
:2075C000C4768300C476830004942000049420000494200000000000000000000000000009
:2075E00001005631207265616420636861726163746572697374696300000000F0B5C1B048
:207600004022284930A8F6F559FF2649BC22403101A8F6F553FF012025494005224F234D23
:20762000896806460024814201D0FAF546F8A80800902FE0002C2BD0012C29D0A500785916
:207640001C49884201D0002805D1884220D17059194988421CD1102C09D230A84159952051
:207660008005FAF5C4FC0346012214490BE001A828188038016C95208005FAF5B8FC0F49DF
:207680000122034624310E48FAF583FA785970510098641CA042CDD8BFF35F8FBFF34F8F06
:2076A00041B0F0BDF46C830054738300FC00000000ED00E0954783005F010000C800100897
:0476C000010110258F
:00000001FF
