:02000004008377
:20600000FFFFFFFFFFFFFFFFFFFFFFFFFFFFFFFF349EFFB30D75BC2C900551455CF086F7AE
:20602000B7E28AC17D8D255D4A57045D7487F350CCB4E771A0FFCA1A422029E55445C3C9C0
:20604000B6CD01017E8A8158414034F991E7AA540112B767E2C58079AE88BE1543C24EA7E2
:206060004F993F928A32E004B6A701126AAED57444D3199EC63D5307C9E111677BD146E433
:206080009A951C5BF4324E555B10D941A072AE684CEB4C3D8D0D18DF7F2119A03EB42A3DE1
:2060A000460DDB41DA1B675B6E3F30B69EC8F1F18C0B26554CE63C554D0E474C29BDA50C85
:2060C0007AD4EB7CA9B62F88245865C87F2BDD43E3CC5F3D375A7D22F5CEF12BC0ABC27289
:2060E000942C8D09062F8EBA7813294E61D3ACC4391F7A8DB082F1958857BC3E870B671925
:20610000AC176111A9E23A4E1626E7E706DFBC3C304DFF3A173A8CBBC2123FBFD7E09A8659
:20612000341FB54B6EE1178980ADB59FF6649A91BB1240E8968878F7459836B9AA839859AB
:206140000884DBBD78C1AD6FA818005037FD3F61B9464371954EFC34739853EB98DA8F21B1
:20616000B4B2DEAFBCE0BC4D88F2D45E7A351CBDE200AEBF7EDFF611B4DE045EB60F91DF77
:20618000A99E46190A56F6F029ACF752C5FA76715D3BF5CF27C0EDCC7A602C8BC3895B4FCC
:2061A000AED7584FAC3EA22024B0E83364B1ED02F767100001099327602F000098C5319B2A
:2061C00043C2ED11BE06113B983EDD6F0064830000000000000000000060830000000000C0
:2061E0000000000000000000000000000000000000000000006483000000000000000000B8
:2062000000000000000000000000000000000000011000203E1D9C8873646B2323232323DD
:20622000D8F0A06AF0D8089163E1C504061C115229CE4C299A1C8D9802DF91EE498E404695
:20624000264540FF5CABD428CE2B30ABCEC35110A84795714B363A92218D416013796C3111
:206260005E938F596B1C3A49E45EBD84020C8271BCD57876DD2C56C886378B3D2447E840F9
:2062800067688245F2916216D11DCE5C729E293B0416761D84C582E266362399B74435956A
:2062A000BF159E15B08A1C8A32EB4489EB49E910388F2355AD99B14B64F0E0D2DC9ABD5056
:2062C000D73D5D5B44A48BD6708990CB8A680FDBA0FF28D930FD0A5B6FD0ECB20EAEE37C4F
:2062E000CF22073BFF2E89518C03401652BF45497721269265BCE2C770876992D0729BE80F
:20630000375CA4716CD44616F401B22714B7500B4E2EBBD790FC625918DCD16B8933646D33
:2063200078831D23B3F437BDCDE24335204F65ABB6614E2E974E8CC3E305AD5E2E82888C63
:20634000D240F25C2165C638889567E346014E10557B2C1D2FB765DC9907911F00A2565372
:20636000832292A3B4DDE915EA8E54A90E5189424CA33793C4207086F834C8095AA479ED21
:20638000F7E2875AD09F3823DA36E8C091F73B385CAEFD61D1C35094C40574A7F8B31C0B30
:2063A0000001000100000000000000000000000000000000000000000000000000000000DB
:2063C0000000000000000000000000000000000000000000000000000000000000000000BD
:2063E00000000000000000000000000000000000000000000000000000000000000000009D
:2064000000480047B7678300C046C04600F083F810B56E2902D100F083FB10BD702902D1FF
:2064200000F0C5FC10BD662902D102F001FA10BD652902D102F0FCF910BD672902D102F058
:20644000F7F910BD612902D102F0FAF910BD03681B0A01D380231943692902D100F02AFB93
:2064600010BD642902D100F025FB10BD752902D100F020FB10BD6F2902D100F043FC10BD62
:20648000782902D100F080FC10BDE92902D100F0DFFB10BDE42902D100F0DAFB10BDF52943
:2064A00002D100F0D5FB10BDEF2902D100F036FC10BDF82902D100F075FC10BD0368DB0931
:2064C00001D380231943632902D101F05AF910BD732902D101F05DF910BDE32902D101F026
:2064E00067F910BDF32902D101F06AF910BD002010BD1FB500F06CFA01F0A2F90400002098
:20650000002102F07FF9401C60600020002102F063F9E0601FBD04488546FFF7EAFF02F041
:206520000DF9EAF7A1D800000020200010B50024E0B202F07FF8641C082CF9DB10BD000082
:2065400010B5C54AC549C648E9F770D9C54AC649C648E9F76BD9C649C648E9F726DA10BD08
:2065600010B5C54AC549C648E9F760D9C54AC649C648E9F75BD9C649C648E9F716DA10BD18
:2065800070B50546CCF70CDA0446C349CFF702DE002818D129462046CFF77CDE0068002850
:2065A00012D02846CFF77CDE04462946CFF7F2DD002808D1FF348134E08EA84203D1B6480A
:2065C0000C30854201D3002070BDE06C0121084370BD10B5B14900280AD001280AD00228C3
:2065E0000AD0032803D17D20C00000F0F9F910BD6420FAE7C820F8E7FF20F530F5E7A84A78
:206600001268002A00D010477047F0B5FF2085B0C330D3F7F8DD4404FF20C130D3F7F3DD7B
:2066200040000443FF20C7300394D3F7ECDD0404FF20C530D3F7E7DD0443FF20CB30D3F7BE
:20664000E2DD0704FF20C930D3F7DDDD0743FF20CF30D3F7D8DD4504FF20CD30D3F7D3DD0E
:2066600040000543FF20D3300295D3F7CCDD0604FF20D130D3F7C7DD0643FF20D730D3F795
:20668000C2DD0504FF20D530D3F7BDDD0543002C04D0DFF7E6DA030034D034E000228149E5
:2066A0008148CDF77AD9814E3568814F6800840F05D1F068B1148843F0607E480760DFF7B2
:2066C0009FD9002211460120DFF7A9D9DFF7C9D97949012009688847DFF7D0D977499620C0
:2066E00009688847002C0BD17068706074480760704880380760F068012109030843F0608F
:20670000356018E001236749012220316648CDF744D964490197009403224C316248039B52
:20672000CDF73BD95F4900960195032278315E48029BCDF732D959484E30807EC1060FD505
:2067400080090DD13E206946087001200872534812380078C007C00F0190684601F0D6FDBC
:2067600005B0F0BD38B572B6FFF74FFFFFF7F8FE002001F067FF53A11F20E8F7FDDF952553
:20678000AD0551A12846CDF736DB044655A12846CDF731DB0346434943480222A831801E99
:2067A0000094CDF7FAD8D2F57BF651480068002800D0804738BD10B5CFF741DC002849D1D8
:2067C000364C523C207DC00744D04B494948086031480A30FFF7D4FE48490022086049497C
:2067E000474808604949484808602C4948486E3108600D21012009038003CBF721D8274804
:2068000026224E30017E012311430176217EF922114021762149F2390A7E1A430A76817EA9
:20682000EF22114081761D48123841788906890E41701A48F0210E3001713C214171C821A5
:206840008171FF21C171FFF77BFE32480068002800D08047012010BDB0020000788F8300BA
:20686000009020007000000028928300B0922000800100002093200000000000609383008F
:2068800000A02100000000006093830000A021000000000000A02100902700001202200054
:2068A000289320000000100802031025006000400000080080E100E0B8022000B402200012
:2068C00080E200E043000000576564204A616E2032342031383A35393A343120323032349C
:2068E00000000000312E302E312E3336000000002C932000656783007C0E2000840E200089
:206900003D858300880E2000FF65830014162000009020003093200011481249EFF305829B
:20692000114B9847FEE770474572726F722120506C6561736520696D706C656D656E7420D0
:20694000796F7572204953522048616E646C657220666F7220495251202564210A00000035
:206960000000002328698300F53800007CB51D4616460C00009001D00019401E084B7B44CD
:206980002A4669460190304600F0E3F8002C054603D06946002000F0EFF828467CBD00006F
:2069A000010200000B4A30B511460B4C60310B46DC3B0CC1372106E0020C8D0012185A5178
:2069C000064A504300190A46491E002AF4DC30BD0120E7E724942000E119D666CD0D010045
:2069E000020A08704A70020C8A70020ECA70704770B5044685690068C10601D5302600E0B8
:206A00002026C00707D070BD62683046A1689047206A401C20626D1EF6D570BD70B50446EB
:206A200085690078C00707D170BD6268A16820209047206A401C20626D1EF6D570BD0968DE
:206A40004A0501D540B27047C905FCD500B2704709684A0501D5C0B27047C905FCD580B2D0
:206A6000704770B50C460546012A05D02878800600D5EA69002302E0012305E05B1C9342F5
:206A800002D2E05C0028F9D1A869E618C01AA861286AC01828622846FFF7AAFF04E06A684B
:206AA0002078A968641C9047B442F8D32846FFF7B5FF70BDF7B5002575291068009914A696
:206AC00011D0FFF7BCFF002802DA404211A608E0009909688A0701D50FA602E0490704D5CE
:206AE0000EA6012501E0FFF7B3FF009F0024243704E000F089FE30313955641C0028F8D15A
:206B00002B4632462146009800F05FFAFEBD0000000000002D0000002B0000002000000011
:206B200011680268006A530501D5087009E0D30501D5088005E0130602D5C21705C100E0EF
:206B4000086001207047000001694A1C02610878704700B58FB0029100210591054901936B
:206B60007944039111460490684600F02DF90FB000BD0000E5FFFFFF0A681070521C0A60ED
:206B800070470CC908399A4202D2531C0B60107070470000F7B50446154686B02B487844B1
:206BA000002703C83E460090019111E007986A467100415A02A800F007FE411C07D0217885
:206BC000890603D5E269391891420ED83F18761C2078800602D5E069B84206DDAE42E5DB45
:206BE00007987100405A0028E0D1A069C01BA0612046FFF7FDFE154878445A3803C80090D0
:206C00000020019116E041006A460798415A02A800F0DAFD0590401C0AD0002505E0626891
:206C200002A8A168405D90476D1C05988542F6D30498401CB0420490E5DB206AC019206254
:206C40002046FFF7EBFE09B0F0BD00005E1E0000F7B5D21D0025D20815A6D200F52905CAF9
:206C600011D0002A05DA00214042914111A60A4608E0009909688B0701D50FA602E049076D
:206C800001D50EA601251146009F0024243704E000F05EF930323A55641C02460A43F7D1D6
:206CA0002B4632462146009800F08FF9FEBD0000000000002D0000002B0000002000000041
:206CC00070B504460021243408E05507D2086D0F303565545D072A43DB08491C15461D4340
:206CE000F3D10468002310A2250708D5A40601D4002904D0C46901230CA2641EC46100F074
:206D000064F970BD10B5044621461068FFF7A0FE002302462046FFF7D3FF10BDD21DD10839
:206D2000C9000CC9CCE700000000000030000000F8B50F460188090502D5224C7C4402E052
:206D4000204C7C440E3405460021243508E016071209360FA65D6E541E0732431B09491CB3
:206D600016461E43F3D1224604780023240705D5702F06D0002901D00223113200F025F9A1
:206D8000F8BD01231032F9E770B504460D4621461068FFF75DFE0023024629462046FFF7D0
:206DA000C7FF70BDD21DD308DB000CCBC0E730B4036820241268234303600823C36130BCAC
:206DC0000023B5E7C81C0000F3B50446002081B020622046E1688847002872D0252802D044
:206DE0006268A168ABE0594F00267F442046E16888472028054608DB312D06D27819203891
:206E00000078002801D00643F0E7B00701D5042086430020E0610746A0612A2D0AD0284619
:206E200001F074FB002827D0B8000019303D0090856119E00298BA00121902C89161029059
:206E40002046E1688847012F054617D1E06900281FDA202086431CE000980A2180694843AB
:206E600000994019303888612046E1688847054601F04CFB0028EFD1012F0AD02E2D08D1A8
:206E80002046E16888470546202006437F1C022FC3DBA069002803DA4042A061012006433B
:206EA000F00701D0102086436C2D0BD0682D09D04C2D3CD06A2D38D0742D38D07A2D36D0B5
:206EC00016E040E0E1682F4620468847B842054609D16C2F29D001208002E168064320465B
:206EE0008847054604E06C2F1DD0FF2001300643002D28D028464138192803D80120C00268
:206F000006432035204626602946029A1646FFF77FFA002810D001280BD0F61DF008C0003A
:206F20000830029055E74020E1E78020D5E70020D3E7361D02964CE762682846A1689047B7
:206F4000206A401C44E7206AFEBD0000421C00000B4670B5024689078008084319469D0858
:206F6000141AA94125090807054308092C194841250A01060D43010A2C194141200C0D0400
:206F800028430D0C00194D41002140194D41C00869070843E908840F8D0025438400241802
:206FA0004D4124196D41121BAB4107E00925ED432C11521963410024401C61411C460A25FB
:206FC0000026551BB441F1D270BDFFB504460D4681B0243000902168880604D51022E06965
:206FE0009143216000E00120A84201DD471B00E000270498A1697A191018081AA0612078EE
:20700000C00602D42046FFF7F3FC002608E003986268A168805D9047206A401C761C20625F
:2070200004988642F3DB2078C0060AD52046FFF7DFFC06E06268A16830209047206A401CE4
:20704000206238467F1E0028F4DC07E000986268A168405D9047206A401C206228466D1E74
:207060000028F3DC2046FFF7D9FC2078000602D5022005B0F0BD0120FBE700007047FFB581
:207080000C461E468FB003CA089009914F007D0D00D16D1E002108460020C0460321099A6B
:2070A00089050840002A03DA8200801840080840800D01280A9002DD0020C0430A900898BD
:2070C00007430DD0F048F149281848430714189800281DD07542291E1DDD0A9842421BE053
:2070E0001898012802D00020302104E00020F24305E02154401CB042FBDB30460022189B72
:20710000002121540F998B600A60486013B0F0BDBD1B6D1CDFE70A9A002900DA69420BA898
:2071200000F0D6FB0BAB07CB03AB07C30899099800F03AFC6B4607C30146D5480918002DF9
:2071400000910BDDD24903980A9A49424018002303A90390684600F097FE08E003990A9ABC
:207160000023081803A90390684600F037FE6B4607C30004000C03D00020C043410800E010
:207180001046189A002A03D00022009215461EE0751E05D4FFF7DCFE303262556D1EF9D52F
:2071A00001220843079602D000227F1C04E02078302801D100227F1E002A069787D01EE0B4
:2071C000112D07DAFFF7C4FE303262556D1C02460A43F5D1084303D00098002819D00EE026
:2071E0000021681E05E0235C625C63542254401E491C8142F7DBA81B401E07950690079A4D
:2072000018990020A0540F98079B069A81600CC07CE711260020189059E7D21DF0B50D468A
:207220000446D10893B0C90003C90C900D9101F057F902460D98C00F01D02D2007E020688F
:20724000810701D52B2002E04007C00F4001032A0F9001D0072A05DB03462946204600F090
:20726000F3FA0EE12078800601D5E76900E006272846652D04D0662814D0672D69D12DE0C0
:207280000020112F009001DB112300E07B1C0CAA03A910A8FFF7F3FE1199002610987D1C65
:2072A0000E9142E001203B460CAAC0070B900120009003A910A8FFF7E2FE119D1298109967
:2072C000002600280E9501D1781C0D18781B02D446427D1C761EE81B00903AE0012F00DA5D
:2072E00001270020112F009001DD112300E03B460CAA03A910A8FFF7C2FE11993D4610985E
:2073000000260E91217809070BD40E99A94200DA0D4603A9012D04DD4A19203AD27F302A3E
:2073200006D0B84201DA011D04DA012100910FE06D1EEFE7002802DC86192D1A03E0411C77
:20734000A94200DD0D46801B401C00900120C0070B902078000705D40098A84202DB002011
:20736000C043009069460020C8720B98012102AF0337C907884225D0022010902B20119084
:207380000B9800280BDA40420B902D20119006E00B9800F039FA30317F1E0B90397010999B
:2073A000481E00291090F3DC0B980028F0D111987F1E38702088000501D5452000E0652008
:2073C0007F1E387001A8C01BC01D0B900F98002800D0012041190098C01709180B980818FF
:2073E000A169081A401EA0612078C00602D42046FFF7FEFA0F98002805D06268A16890472C
:20740000206A401C20622078C00625D52046FFF7EFFA21E0002E07DB0E98B04204DD03A832
:207420006268805DA16802E06268A16830209047206A761C401C20620098401E0028009018
:207440000AD100F0FDF9C06862680168405CA1689047206A401C206228466D1E0028D9DC56
:2074600007E062683878A1687F1C9047206A401C20620B99481E00290B90F2DC2046FFF7D0
:20748000CDFA032042E6000001FCFFFF104D0000E1DFFFFFD21DF0B504460D46D0088DB07E
:2074A000C000466807683146384601F019F80246F00F01D02D2307E02068810701D52B2375
:2074C00002E04007C00F43016846002B037001D0012000E00020032A0A9001D0072A04DB8A
:2074E0002946204600F0B0F92DE12078800601D40D2500E0E5697000400D0D2D01904BDA10
:20750000300D00210B9008460020C046032189050840002E05DA82008018C20F1018401094
:2075200008408015012801DD0020C043A9000023182906D39C460A460123183A1B07D34081
:2075400003E001221205CA4094460C31202902D33A46203900E032468A40002802DD002AA3
:2075600006D119E0002817D10121C9078A4213D3194663467F185E41002806D10120C00762
:20758000824202D1084687439E430B98310D814202D00198401C01902088000502D5714921
:2075A000794402E06F49794419396B460A9830221A540A980A7C401C1A54401C0A900198D1
:2075C000002801DC302000E031201872019A0120002A02D0644BD21804E072003A4302D0A5
:2075E000614A521C0192002D02DC2278120703D56A462E20507202200022864694460CE0B3
:2076000032033601120F6D1E8B5C02AA13546246521C401C9446052A01DA002DF0DC0022E7
:2076200002AE08E03B0F3F01CB5C521C6D1E3354401C082A01DA002DF4DC23689A0601D51A
:2076400011E0401E704504DD3218203AD27F302AF7D0002807DD3218203AD27F2E2A02D103
:207660001A0700D4401E002D03DD3E223254401C6D1E497C31540199401C002906DA2D2146
:20768000471C315401984042019003E02B21471C315401987D21C900884206DB00F04EFC5A
:2076A0003030F0557F1C019101E0642808DB0198642100F043FC3030F0557F1C019101E0A8
:2076C0000A2806DB01980A2100F038FC3030F0557F1C01980A2100F031FC3031F1550A9845
:2076E000A1697F1C7A191018081AA0612078C00602D42046FFF77CF9216A6E460A98081801
:20770000206204E062683078A168761C90470A98401E0A90401CF5D12078C00602D52046C8
:20772000FFF766F902AE09E03078761C3E280DD06268A1689047206A401C20627F1EF3D26A
:207740002046FFF76BF90DB00320F0BD206A4019206203E06268A168302090476D1EEDD34F
:20776000F8E70000B014000001FCFFFF10B54369002B02D0C046C04601E0FFF772F901208E
:2077800010BD1278014624310A7000224A700122ECE711680022D243E8E710B54369002B8F
:2077A00002D0C046C04601E0FFF7F4F9012010BD12880146243182840022C2840122ECE79F
:2077C00011680022D243E8E770B516460C46054600F02EF80368FF200230C05C012807D01E
:2077E000FF2C0ED8185D00280BD001202C7070BDFF333246214608331868C3182846984722
:2078000070BD0020C04370BD01468008081A02091018020A1018020C1018C00882001218E9
:207820005200891A01E0401C0A390A29FBD2704710B500F005F8001D10BD00BFC90F0000E9
:20784000004870478C942000F8B51F46044601230068DB02032601461840072A05DB002823
:2078600001D017A506E017A504E0002801D016A500E016A5102081432160A069C01E002F1B
:20788000A06101D0401EA0612046FFF7B1F8002F09D038466268A1689047206A401C20621A
:2078A000C01C206206E0206AFAE762682878A1686D1C9047761EF8D22046FFF7AFF8F8BD30
:2078C0004E414E006E616E00494E4600696E6600F7B516468AB0334878446C4603467C3351
:2078E000C06F5A689B680DC42E487844763003AC0DC80DC43720C001081837211B3000F0CB
:207900001DFB05460C46803D1B3C02D56442012000E000200027099010E0E0070CD00C2061
:2079200020497843794432464C3941186846012300F054FA6B4607C364107F1C002CECD18D
:20794000184F7F442E3F16E0E80712D02001C0190EC80691089307920068F04201D1981911
:2079600008903246012306A903A800F037FA03AB07C36D10641C002DE6D10998002806D060
:2079800032466946012303A800F07EFA05E001233246694603A800F021FA0A9B07C30DB077
:2079A000F0BD00008C110000034640000A4610B5400D0BD00121C9070F24A40200191C03B4
:2079C00064082143540D2143D20207E000210120F2E7D40F490021435200401E0029F8DA01
:2079E000DB0FDB07184310BDFFB50D46144685B04868516800F05CFD00910190A868A16810
:207A000000F056FD02910390A868616800F050FD029A12188242029201D2012000E00020D5
:207A2000019A0B18D2180028019202D08A4202D903E08A4201D2012000E00020009908180E
:207A400000906868A16800F033FD029A12188242029201D2012000E00020019A0B18D218E3
:207A60000028019202D08A4202D903E08A4201D2012000E0002000990818009028682168CD
:207A800040004900400849084018FA49471814E001994000C90F08430090019802994000D5
:207AA000C90F08430190029803994000C90F08430290039840007F1E039000980028E7DA5B
:207AC0000898002801D0EC4E00E00026B74201DA012000E00020002804902AD0F71BF80612
:207AE000C00E15D0029B2021091A039A8B401A430392029A019BC2408B401A430292019AE7
:207B0000009BC2408B4000991A430192C14000917B110DD06F460320C11A03D5002182004B
:207B2000B95003E08A008100BA587A50401EF3D5374603980299002800D00120014308989C
:207B40000291002808460CD0002800D001200199019A490508430121D20AC902D202019229
:207B600000E001210E9B0122D207012B02D0002B03D013E0002807D120E0904204D89042EF
:207B80000CD1019B0B4209D0019B5918019105D10099491C009101D17F1C009200280DD03E
:207BA000102108460020C0460498002806D00F98002803D0082108460020C046286821682E
:207BC000019B009A4840C10F0598C90739430EC009B0F0BDFFB587B0099A08980899536870
:207BE00092684068896896460022039317469446089A12685300099A5B081268520052088C
:207C00009A1A9E4BD4180A9A002A01D0352200E0402206920022012315460492DB0705935A
:207C200024E0002D05D175460346039E4D1BB34109D375466646039B491B049D9841059BDD
:207C40007519AC465F4163463B4308D0059B049EDD0776082E435B080496059301E0521E0A
:207C6000641EC50FED0749184041521C069B9A42D7DB002D04D17546039A6B1A824101D2C6
:207C800003200CE0039A0B466B404240134303D0014303D0012002E0022000E000206146AE
:207CA00001910021009702910A99002905D0614640020143704B019102E0800700230290AE
:207CC0009C4201DA012000E0002007003AD01A1BD006C00E15D0029D2021019C091AC54056
:207CE0008C402543029C8C4000D001242543019C0295009DC4408D4000992C430194C14049
:207D0000009154111DD06D460221002202290CD10320001B07E0002804DB8600AE59002E99
:207D200000D00122401C0328F5DB081B02D588002A5004E08000285810438A00A850491EDD
:207D4000E3D51C460A98002802980CD0002800D001200199019A490508430121D20AC90219
:207D6000D202019200E00121109B0122D207012B02D0002B03D013E0002807D11FE0904233
:207D800004D890420CD1019B0B4209D0019B5918019105D10099491C009101D1641C0092AE
:207DA00000280CD0102108460020C046002F06D01198002803D0082108460020C046089834
:207DC0000999019A009B006809684840C10F0798C907214382600AC00BB0F0BD00B585B0C9
:207DE000019300920A460146002302A8FFF7FCFD02A807C805B000BDFFB50A461F4685B081
:207E00000799019301230091014602A8FFF7ECFD02990398049ECA0F4900D20700920F2213
:207E2000490892028C1A0021002800DB0C46450013486D08844214D3079A002A04DA441E74
:207E40000026104DF64302E004460D460E46102108460020C046002F03D004210846002059
:207E6000C0462005E90A0843009908436905F20A1143ADE602C0FFFF013C0000FF3F000029
:207E8000FF070000FFFFFF7F00B585B0019300920A460146002302A8FFF79CFE02A807C8E3
:207EA000A8E7FFB50A461F4685B00799019301230091014602A8FFF78DFE02990398049E62
:207EC000CA0F4900D20700920F22490892028C1A0021002800DB0C46450011486D0884420A
:207EE00014D3079A002A04DA441E00260D4DF64302E004460D460E46102108460020C0465F
:207F0000002F03D0042108460020C0462005E90A0843009908436905F20A114358E6000083
:207F2000FF070000FFFFFF7F002203098B422CD3030A8B4211D300239C464EE003460B433D
:207F40003CD4002243088B4231D303098B421CD3030A8B4201D394463FE0C3098B4201D3F7
:207F6000CB01C01A524183098B4201D38B01C01A524143098B4201D34B01C01A52410309F0
:207F80008B4201D30B01C01A5241C3088B4201D3CB00C01A524183088B4201D38B00C01A92
:207FA000524143088B4201D34B00C01A5241411A00D201465241104670475DE0CA0F00D090
:207FC0004942031000D34042534000229C4603098B422DD3030A8B4212D3FC22890112BA0B
:207FE000030A8B420CD3890192118B4208D3890192118B4204D389013AD0921100E0890979
:20800000C3098B4201D3CB01C01A524183098B4201D38B01C01A524143098B4201D34B015B
:20802000C01A524103098B4201D30B01C01A5241C3088B4201D3CB00C01A524183088B42B1
:2080400001D38B00C01A5241D9D243088B4201D34B00C01A5241411A00D201466346524155
:208060005B10104601D34042002B00D54942704763465B1000D3404201B50020C046C0465C
:2080800002BD000010B5064C0448226802219047226804480521904710BD000025912000C4
:2080A000E00A20009791200010B5252424060AA1204600F0F1FA0120C00400F077F80128DD
:2080C00003D109A1204600F0E7FA01200021000500F092F810BD00004C50434F4D505F48EB
:2080E000616E646C657200004C504320414F4E0010B5FF2415340028204604D0D2F783D876
:208100000121014303E0D2F77ED8410849002046D2F7CBD810BD000010B5FF241134204633
:20812000D2F771D8802101432046D2F7BED8241D2046D2F768D8410849002046D2F7B5D885
:20814000194C216802208143204600F0C5F82168A0128143204600F0BFF82168E0128143ED
:20816000204600F0B9F8216860158143204600F0B3F82168A0158143204600F0ADF80A48E6
:208180000021083000F0A8F8216801200143204600F0A2F800BF00BF20684108490020461A
:2081A00000F09AF810BD000080010040014601230020DB04074A994204D15168890700D526
:2081C00001207047CB1FF93BFBD15168C907F7D17047000080010040010000B50448054AC3
:2081E000016801D0114300E0914300F075F800BD800100400002000030B50C4CA2681025E4
:20820000AA43A2600A4A0029116806D00143104600F062F8E068284305E08143104600F01D
:208220005BF8E068A843E06030BD0000006000408001004070B5FF25044611352846D1F71B
:20824000E2DF8021884301462846D2F72ED85220D1F7D9DF217A800989068001890E01436C
:208260005220D2F722D82D1D2846D1F7CCDF2288800980015200A1880243114389B228462D
:20828000D2F713D8074C216804252943204600F023F800BF00BF21682046A94300F01CF8EB
:2082A00070BD00008001004002210180002141602A21816070470000010000B50448054A36
:2082C000016801D0114300E0914300F005F800BD800100400000080070B5094D01242A78A7
:2082E000002A05D1A20753695615334353612C70044A1163044940185063946370BD0000AA
:208300003C932000C001004000FFFFBF70B5047A00212B4A132341560125002C3BD03229F2
:2083200006DBD4682E4632398E403443D46003700178CA06D20E29469140224A11600021EE
:208340004156FF264268002911DA0B071B0F083B9C081D4BA400E318DC698907C90E8E40FF
:208360005207120EB4438A401443DC610DE08C08164BA400E3181C688907C90E8E4052079C
:20838000120EB4438A4014431C600078C006C00E85400F4812E00E48803032290BDBD3688D
:2083A00032398D40AB43D360D168002902D10121C904016070BDC906C90E8D40056070BDAD
:2083C0000060004080E200E000ED00E000E400E000E100E0F8B50F46164940000D5C1C46FD
:2083E00016462846D1F70FDF00090001002C02D0012C02D003E0042100E00C2108430699F7
:208400004C0007990C43044301204002002F01D0044300E08443FF272146013739432846DA
:20842000D1F743DF002E04D12146B9432846D1F73CDFF8BD64898300820893008007064A82
:2084400010B5C00E9A181368FF248440A34381400B43136010BD00008002004001460648E9
:2084600000B542050129016803D0914300F006F800BD1143FAE700000001004070B5094D2A
:2084800001242A78002A05D1A20753695615334353612C70044A116304494018506394636E
:2084A00070BD0000A0932000C001004000FFFFBFF8B5040C8BB2264682B25E431046584352
:2084C0000D0C370C360400218019164679416E43370C36048019264679416E438919F8BD41
:2084E0004900CA020243100000D004204A0D01D001221043044A490D914201D102210843C9
:20850000012800D105207047FF07000030380A2801D201207047002070471CB50121002050
:208520000A4601910090014602231420FFF752FF00211420FFF780FF1CBD000010B5072053
:20854000D8F7C0DA0003040E0720D8F785DA2146CDF715DB0F4C0421207D0843207500F040
:2085600031F9207DC1070C480ED00CA100F094F80D480068002800D08047FDF7D7FFFDF7D7
:2085800043FFDDF7EEDF10BD08A100F085F8DDF775DAF6E7C001200000000025496E2053E5
:2085A0006F43204D6F646500349320005741524E494E473A20496E20484349204D6F6465BD
:2085C0002C2077696C6C206E6F742072756E20415050205461736B000EB5252011A100063D
:2085E00000F05AF8FFF798FD6846FFF75DFE042069460880002001902A2002906846FFF723
:2086000019FE01210805FFF7F7FD0120FFF754FE0120FFF723FF0120FFF76AFD00F0A0F882
:208620000EBD00006472697665725F6C70635F696E69740010B501460148E2F797DB10BDC5
:2086400000C0024010B5032801D3002010BD242148430F49082244180E492068E7F796D88E
:20866000002812D0A2696168E068E7F7DFD8E269A1682069E7F7DAD8216A6069E7F795D932
:20868000082204482168E7F7D1D8012010BD0000B0922000209320000FB470B50446244893
:2086A000C0B0007800283ED02248007E80073AD4CBF745D87E216A46117000211171210E9E
:2086C0009171210CD1710290200A10730C2546ABF02103A8459AFEF749F900B2002805DB3C
:2086E0000C30FC2801DDFC2500E085B26B465D70DDF7C2DF104A6B4611789970491C11708E
:20870000DDF7C8DF6B46187859786E46484099784840D870002404E0305DCAF7EFDF641C0B
:20872000A4B2AC42F8D340B070BC08BC04B01847160F2000C0012000140F200010B50748BA
:208740000068FEF72FF9FFF7E8FEFFF745FF00F017F8DDF706DF002010BD000038932000EE
:208760000EB536206946087003200190012008726846FFF7CBFD0120FFF72EFD0EBD0000F1
:2087800010B50B4A09481268002190470A49094808600B4909480860FFF774FC0224002037
:2087A00017F4BEF72046D1F721D810BD77922000E00A200045922000409320005B922000DB
:2087C0004493200010B50020C043CDF70CDF0149086110BD2893200010B500290AD0087868
:2087E000002807D005487844E7F7E4D8002801D0002010BD0248784410BD00006A050000AF
:208800006205000010B500290AD00878002807D005487844E7F7CED8002801D0002010BD37
:208820000248784410BD00005A0500005205000003B402487844844603BC6047E3E9FFFFF8
:2088400003B402487844844603BC60474DECFFFF6D616C6C6F630063616C6C6F6300726537
:20886000616C6C6F63000000848C8300188D8300788C8300208D8300D08C8300388D830054
:208880002C8D8300C08C8300C08C8300C08C8300C08C8300508C83000C8D8300C08C830016
:2088A000A08C8300DC8C8300F08C8300908C83002C8C8300E48B8300B88B8300548C83002A
:2088C000B88C8300B08C8300108C8300688C8300448C8300388B8300848B8300188B83002B
:2088E000308B83007C8B8300208B83006C8B8300348C8300E48C8300408B83008C8B8300EA
:20890000C88B8300EC8B83005C8B8300A88B8300FC8B8300D88B8300988C83009C8B830026
:20892000508B8300C08B8300088C83001C8C8300288B8300C88C8300048D8300A88C8300F1
:208940007C8C8300448D8300748B8300248C8300F88C8300708C8300388C83004C8C83005B
:208960009C8C8300E000E200E400E600E800A000A200A400EA00EC00EE00F000F2008000CC
:2089800082008400C000C200C400C600C800CA00CC00CE00860088008A008C008E00900057
:2089A00092000000A600A800AA00AC00D00096009800F400F410F420F430F440AE00AE10B3
:2089C000AE20F450F460F470F480F4909A009A109A20D200D210D220D230D240D250D260C9
:2089E000D2709A309A409A509A609A709A809A900000AE30AE40AE50AE60D2809AB09AC091
:208A0000000000000000000030313233343536373839414243444546403058003031323326
:208A20003435363738396162636465664030780004000008000000000000000200010000A3
:208A400010303132333435363738396162636465667870003031323334353637383941422C
:208A6000434445465850000002400000000000A00000000005400000000000C8000000004D
:208A80000C4000000000409C00000000194000000020BCBE0000000034400000BFC91B8E16
:208AA00000000004B5400000504BCFD06607E2CF010000006C4100003E8251AADFEEA73454
:208AC00001000000D9420000DCB5A0E23A301F97FFFFFFFFB4450000FD25A0C8E9A3C14F2C
:208AE000FFFFFFFFFF3F00000000008000000000FF3F000000000080000000005363656E75
:208B0000655F42005363656E655F4300426F6F744F6E63650000000049383038300000008D
:208B2000493243300000000053504943300000005350493000000000554152543000000060
:208B400047444D4130204368616E6E656C3000004750494F5F47726F75703000456E68617C
:208B60006E6365645F54696D6572300049324331000000005350494331000000535049315F
:208B800000000000554152543100000047444D4130204368616E6E656C3100004750494FE6
:208BA0005F47726F75703100456E68616E6365645F54696D6572310054494D320000000055
:208BC000554152543200000047444D4130204368616E6E656C3200004750494F5F47726F1D
:208BE0007570320054494D330000000047444D4130204368616E6E656C3300004750494FBD
:208C00005F47726F7570330054494D340000000054696D6572342D350000000054494D35E1
:208C200000000000534841323536000042544D414300000041444300464C4153485F534527
:208C40004300000050465F5254430000525443005356430042544D41435F575241505F417E
:208C6000524F554E440000005A4947424545000054524E47000000004E4D49004C50434F69
:208C80004D500000496E697469616C5350000000544D45544552000049520000574454006F
:208CA00050656E64535600005350493257000000493253305F525800493253305F545800FF
:208CC0005273766400000000516465636F6465004D656D4D616E6167650000005379735445
:208CE00069636B005065726970686572616C000053797374656D0000506C6174666F726D67
:208D0000000000004B65797363616E0044656275674D6F6E00000000526573657400000071
:208D2000486172644661756C7400000055736167654661756C7400004275734661756C74A1
:208D4000000000005054415F4D61696C626F78001C00000043000000F8FFFFFF0C000000A3
:208D60000E0000000F0000002E0000001001000043000000F8FFFFFF00404040404040409F
:208D800040404141414141404040404040404040404040404040404040050202020202027D
:208DA0000202020202020202022020202020202020202002020202020202909090909090F3
:208DC000101010101010101010101010101010101010101002020202020288888888888817
:208DE00008080808080808080808080808080808080808080202020240000000000000008B
:208E0000000000000000000000000000000000000000000000000000000000000000000052
:208E2000000000000000000000000000000000000000000000000000000000000000000032
:208E4000000000000000000000000000000000000000000000000000000000000000000012
:208E60000000000000000000000000000000000000000000000000000000000000202000B2
:208E80000164830019698300196983001969830019698300196983000000000000000000D1
:208EA00000000000000000001969830000000000000000001969830019698300196983009E
:208EC00019698300590305001969830019698300196983001969830019698300196983000E
:208EE00019698300196983001969830019698300196983001969830019698300196983004A
:208F0000196983001969830019698300196983001969830019698300196983001969830029
:208F20001969830001902000499020001969830091902000D99020001969830019698300A9
:208F40001969830019698300196983001969830019698300A9808300196983001969830042
:208F600019698300196983001969830019698300196983001969830010B5474804682007EC
:208F800001D52DF285F4200601D52DF281F4200501D52DF27DF4200401D52DF279F420039F
:208FA00001D52DF275F4200201D52DF271F4200101D52DF26DF4002C01DA2DF269F410BD10
:208FC00010B535480468600701D52DF261F4600601D52DF25DF4600501D52DF259F460047B
:208FE00001D52DF255F4600301D52DF251F4600201D52DF24DF4600101D52DF249F460000B
:2090000001D52DF245F410BD10B523480468A00701D52DF23DF4A00601D52DF239F4A0057F
:2090200001D52DF235F4A00401D52DF231F4A00301D52DF22DF4A00201D52DF229F4A00146
:2090400001D52DF225F4A00001D52DF221F410BD10B511480468E00701D02DF219F4E00637
:2090600001D52DF215F4E00501D52DF211F4E00401D52DF20DF4E00301D52DF209F4E00282
:2090800001D52DF205F4E00101D52DF201F4E00001D52DF2FDF310BD4010004070B500F6DA
:2090A00064FB012803D1CF21052001F6CFF83A4901200860384880380068384A1060364865
:2090C0008030006850600020354B14460C348100CD182D686550401C0828F8D33148806826
:2090E00090603148C0682D4B343B986000202F4C1A460C3281000D192D68401CC0B2555018
:209100000A28F7D31868002800D0804770BDFEB5224A0020254B283A81005458C9180C605C
:20912000401CC0B20A28F7D31C4D343D6868002800D08047002069460870012008720320F7
:20914000019068462FF29EF0144C20686168084205D06368012216491648FAF5DAFB104A88
:2091600010680E4B0C331968134E314008431060012081005E5889180E60401C0828F8D313
:20918000A06808498860A8680749C8602068024980390860FEBD000080E100E074932000EF
:2091A00000E400E000ED00E00060004080020040140110080101102500FF00FF10B5252050
:2091C0000CA100062FF224F2012108052EF2D0F710BD10B50A480168491C016000F6F0FA9C
:2091E0000246252007A100062FF212F210BD0D4800787047444C505320454E5445520000ED
:20920000A4932000444C505320455849542C2077616B6520757020726561736F6E20307801
:20922000257800001C9320000C8B83009892830060938300A09420006895200068952000F7
:20924000C80000000000000000000000FC8A83006093830060938300A0942000A0942000A9
:20926000A0942000000000000000000000000000048B83006093830060938300A094200048
:20928000A0942000A094200000000000000000000000000002000000F0B5C1B0402228493B
:2092A00030A8F6F50BFF2649BC22403101A8F6F505FF012025494005224F234D8968064699
:2092C0000024814201D0F9F5F8FFA80800902FE0002C2BD0012C29D0A50078591C498842B0
:2092E00001D0002805D1884220D17059194988421CD1102C09D230A8415995208005FAF550
:2093000076FC0346012214490BE001A828188038016C95208005FAF56AFC0F4901220346C6
:2093200024310E48FAF535FA785970510098641CA042CDD8BFF35F8FBFF34F8F41B0F0BD65
:20934000688883007C8E8300FC00000000ED00E0196983005F010000C800100801011025C8
:00000001FF
